:020000041000EA
:1000000000B5324B212058609868022188439860DF
:10001000D860186158612E4B002199600221596106
:100020000121F02299502B49196001219960352056
:1000300000F044F80222904214D00621196600F024
:1000400034F8196E01211966002018661A6600F04E
:100050002CF8196E196E196E052000F02FF8012189
:100060000842F9D1002199601B49196000215960AB
:100070001A491B48016001219960EB211966A021F2
:10008000196600F012F800219960164914480160C1
:100090000121996001BC002800D000471248134993
:1000A000086003C880F30888084703B5996A0420EC
:1000B0000142FBD001200142F8D103BD02B5186610
:1000C0001866FFF7F2FF186E186E02BD00000240BE
:1000D000000000180000070000035F00212200005C
:1000E000F4000018222000A00001001008ED00E03C
:1000F00000000000000000000000000074B24E7A12
:1001000000200420F7010010C3010010C5010010F9
:10011000C1010010C1010010C1010010C101001097
:10012000C1010010C1010010C1010010C701001081
:10013000C1010010C1010010C9010010CB01001065
:10014000CD010010CD010010CD010010CD01001037
:10015000CD010010CD010010CD010010CD01001027
:10016000CD010010CD010010CD010010CD01001017
:10017000CD010010CD010010CD010010CD01001007
:10018000CD010010CD010010CD010010CD010010F7
:10019000CD010010CD010010CD010010CD010010E7
:1001A000CD010010CD010010CD010010CD010010D7
:1001B000CD010010CD010010CD010010CD010010C7
:1001C00000BE00BE00BE00BE00BE00BEEFF3058054
:1001D000103800BEF2EB88713CFA0E105CFA0E107B
:1001E0003802001090A31AE71E481F49086006C88D
:1001F00081F3088810471D480068002801D019487D
:10020000F3E70DA40ECC002902D000F012F8F9E7B4
:100210001749184A002000E001C19142FCD116495B
:100220008847164988471649884700BEFDE701C937
:1002300001C29A42FBD370475CFA0E10C000002046
:10024000000800209C010F10000004200000042082
:100250009C010F100010042000100420000000007A
:10026000704700000000000008ED00E0000000D032
:1002700000080020600D0020D13F0010D5020010C2
:10028000C93F0010F8B5C04606480749091A8B1047
:10029000C90FC91810B5491003D0044B002B00D06A
:1002A000984710BD00080020000800200000000052
:1002B000054B10B5002B03D00449054800E000BFF2
:1002C000FFF7E2FF10BDC04600000000300D002027
:1002D000284F0010F0B5DE4657464E464546E0B57D
:1002E0008BB003F08FFF694804F062F800F0C0FAA9
:1002F000071E00D1A5E04168654804F059F8B968C7
:10030000644804F055F804AA17239446634419007E
:10031000380000F03DFB002800D08BE004ABD97D15
:100320005D4804F045F85D4B05935D4B06935D4BCE
:1003300007936AE096239B000393C8339B4602937E
:10034000F53BFF3B9A4601936433994600938E3BFD
:100350003800554A0599FF3B00F0BEFB002874D1D8
:1003600002239846019396239B00009352465B46D6
:1003700049463800029600F013FC002869D1FA20A3
:10038000C00001F061F80121380000F04FFB0028A7
:1003900063D10190009000233800444A06990395E8
:1003A000029400F099FB00285BD1434600220193A0
:1003B0000021230038000296009500F0F1FB8146F1
:1003C000002852D1FA20C00001F03EF84B46380018
:1003D00001930093354A002307990395029400F096
:1003E0007BFB002845D143460022019300212300D6
:1003F00038000296009500F0D3FB00283DD1002183
:10040000380000F013FB00283BD1C82496250023B8
:100410000126E400ED0001930022230000213800B2
:100420000296009500F0BCFB002883D0204803F022
:10043000BFFFFEE71F4803F0BBFF380000F09EFA45
:10044000FEE71D4803F0B4FFFEE71C4803F0B0FFD1
:10045000FEE71B4803F0ACFFFEE71A4803F0A8FFD5
:10046000FEE7194803F0A4FFFEE7154803F0A0FFDC
:10047000FEE7164803F09CFFFEE7114803F098FFE3
:10048000FEE7134803F094FFFEE7C046284F001034
:10049000744F0010984F0010E44F0010E851001006
:1004A000684E0B10E8A407100053070080A9030052
:1004B00010500010BC4F0010444F0010345000107A
:1004C0005C5000107C500010AC500010D850001050
:1004D0000451001010B513490400134803F074FFD1
:1004E0000121102000F0C2FB0521112000F0BEFB0D
:1004F0000121122000F0BAFB0121132000F0B6FB0D
:10050000D02380221B0652039A6280218022890315
:10051000920259625A6259615A6100230020236095
:1005200010BDC04640787D0100C0034010B50248B0
:1005300003F0E8FF002010BD00C0034010B5080024
:1005400000F082FF002010BD70B5D0248025240665
:10055000AD03A561642000F077FF6561C82000F05D
:1005600073FF002070BDC04600B583B06B46D971E3
:10057000073301221900034804F0A6FC002003B051
:1005800000BDC04600C0034010B5024804F09CFC0A
:10059000002010BD00C0034010B582B06B46DC1DCA
:1005A000220001230021034804F06EFC207802B0F1
:1005B00010BDC04600C00340D02380221B0692021B
:1005C00000205A617047C046D02380221B06920249
:1005D00000209A617047C046D0231B065868C002AD
:1005E000C00F704770B504000E002068FFF7F4FFDD
:1005F0000028FAD000212068FFF7E6FF002105005F
:100600002068FFF7B1FF002105432068FFF7ACFF2A
:10061000EDB20543EDB22068FFF7DEFF0028FAD007
:10062000310A2068FFF7A0FFF1B205432068FFF709
:100630009BFFEDB2002105432068FFF7BDFFEDB23F
:100640002843C0B270BDC04670B504000E002068DB
:10065000FFF7C2FF0028FAD000212068FFF7B4FF9F
:10066000602105002068FFF77FFF00210543206817
:10067000FFF77AFFEDB20543EDB22068FFF7ACFF5C
:100680000028FAD0310A2068FFF76EFFF1B2054367
:100690002068FFF769FFEDB2002105432068FFF7EE
:1006A0008BFFEDB22843C0B270BDC04670B50400E8
:1006B0000D001021FFF7C8FF29002000FFF792FF6F
:1006C0002068FFF789FF0028FAD000212068FFF793
:1006D0007BFF10212068FFF747FF00212068FFF70C
:1006E00043FF2068FFF778FF0028FAD02068FFF763
:1006F00053FF2068FFF750FF2068FFF76DFF0028C9
:10070000FAD02068FFF748FF05022068FFF744FF92
:10071000ADB20543ADB200212068FFF74DFF2800C0
:1007200070BDC046F0B5DE4657464E464546E0B57C
:100730004B6887B00E001121040001929A46FFF722
:1007400083FF4A4907002000FFF74CFF53468346CA
:10075000190C2000FFF746FF112181462000FFF70A
:1007600073FF8221804689002000FFF73BFF5B4634
:100770001F435346050099B22000FFF733FF4B4655
:100780004146FFB23B4319430B002B431843C3B20E
:1007900072899846338912011B0201981343B2896A
:1007A000C188134302881B0412041B0C134302006C
:1007B0008088528800040243029302AB0392200017
:1007C000198102AF2121FFF73FFF0A23BC46634492
:1007D0000500994639882000FFF704FF02370543DA
:1007E000EDB2B945F6D13368019A99469388D2881B
:1007F00047465A4392462F432068FFF7EDFE0028F4
:10080000FAD000212068FFF7DFFE00218046206833
:10081000FFF7AAFE002106002068FFF7A5FE0500ED
:100820002068FFF7D9FE0028FAD0524649462068D2
:10083000FFF7AAFE002181462068FFF7BDFE434670
:100840003B431E434B4635432B431D0022210543AA
:100850002000FFF7F9FEEDB22843C0B207B0F0BCAC
:10086000BB46B246A946A046F0BDC0460A020000FB
:10087000F0B5CE46474680B510208BB001F0B6FFEC
:10088000041E00D170E0FFF725FE002800D06DE0C7
:100890002068FFF759FE002860D120003649FFF795
:1008A000D3FE06002068FFF797FE0028FAD000214B
:1008B0002068FFF789FE102105002068FFF754FE2D
:1008C000002105432068FFF74FFEEDB22E43F3B23F
:1008D000814698462068FFF77FFE0028FAD02068FE
:1008E000FFF75AFE2068FFF757FE2068FFF774FEF7
:1008F0000028FAD06E460AAF2068FFF74DFE0500CB
:100900002068FFF749FE2D02284330800236BE42A0
:10091000F2D100212068FFF74FFE4B4642461343B9
:100920001843C0B2002819D111212000FFF78CFE16
:1009300004212000FFF756FE01212000FFF752FEA0
:10094000019BE3606B461B8863606B465B88A3601A
:1009500020000BB0C0BCB946B046F0BD2000FFF788
:10096000E5FD200001F054FF0024F1E7200001F034
:100970004FFF0024ECE7C0460203000010B5041E40
:1009800004D0FFF7D3FD200001F042FF10BDC046A8
:10099000F8B504000E00002845D04021FFF754FEB2
:1009A000002105002000FFF71DFE322105432068CD
:1009B000EDB2FFF7C3FD2068FFF70EFE0028FAD066
:1009C00000212068FFF700FE10212068FFF7CCFD12
:1009D00000212068FFF7C8FD2068FFF7FDFD002813
:1009E000FAD02068FFF7D8FD2068FFF7D5FD206812
:1009F000FFF7F2FD0028FAD02068FFF7CDFD0700D1
:100A00002068FFF7C9FD3F0207432068FFF7C4FDD8
:100A10002068FFF7C1FDBFB200212068FFF7CCFDC1
:100A200037702800F8BD0125FBE7C046F8B5CE4673
:100A30004746040080B5002848D0002919D1244930
:100A4000FFF734FE112106002000FFF7FDFD2049CD
:100A500005002000FFF7C6FDFB21054331402000C3
:100A6000FFF7C0FDEDB22843C0B2C0BCB946B046E6
:100A7000F8BD1749FFF71AFE112106002000FFF705
:100A8000E3FD134905002000FFF7ACFD04231E43DE
:100A9000F1B280462000FFF7A5FD1121814620001C
:100AA000FFF7D2FD0B4907002000FFF79BFD4346EF
:100AB0000600F02120001D43FFF794FD4B46EDB2E8
:100AC0002B431F433E433043C0B2CEE70120CCE767
:100AD0003A1100005012000070B504000E001D0015
:100AE00086B0002815D0002B0DD00120032B11D18A
:100AF0000C9B002B0ED00D9B002B0BD00C994B4365
:100B0000934207D10EE00C9B002B02D00D9B002BD3
:100B100002D1012006B070BD0C9901204B43D200D8
:100B20009342F7D10A9B0C9A9C46636862449A42AE
:100B3000EFD80B9B0D9A9C46A36862449A42E8D872
:100B400020001649FFF7B2FD0028F9D1E36802A999
:100B50004B6001230B810B9B88819AB20D9B0A98F5
:100B600002969BB21204002D10D00004000C10431A
:100B70001A040C9B1B041B0C1343019303230090CA
:100B80006A4620004B81FFF7CDFDC3E74003000C10
:100B900010430C9A1B045203120CEDE724120000C0
:100BA000F0B5CE46474680B585B004000CA880C895
:100BB00005780EA800788146002C42D0072D40D839
:100BC000002B3ED0002F3CD066688E4239D3A068FF
:100BD0008046904235D3581884460120664531D36B
:100BE000BE18B0452ED309041204090C1B0411438E
:100BF0001B0C3A04134301936B46009120003421EF
:100C00001D81FFF721FD0A236B4405006F469846BE
:100C100039882000FFF7E6FC02370543EDB247456F
:100C2000F6D14B46002B12D138212000FFF70CFDE6
:100C3000002106002000FFF7D5FC06433543E8B24B
:100C400000E0012005B0C0BCB946B046F0BD2000B0
:100C50000549FFF72BFD0028E6D020000249FFF7E9
:100C600025FD0028F3D1DFE724120000094A8300A4
:100C70009A1810B514684022544080322240064C25
:100C8000C000A44663441A60044B9C466044416023
:100C900010BDC04604C0014004D0014000400140E6
:100CA0000FB400B5084883B003F0FAFA049B002B98
:100CB00007D005A91800019103F052F9034803F089
:100CC000EFFA012003F064F92851001038510010A8
:100CD00070B5EFF3108C72B60D4D2B68002BFCD065
:100CE000BFF35F8F0724CB08C618C05C01230C40FC
:100CF000A3401C000440034207D118433070BFF3E7
:100D00005F8F2C608CF3108870BD1000FFF7C8FF58
:100D10002C0100D0044A1078431CDBB2172B00D9F9
:100D2000102313707047C046580200200021044B66
:100D3000044ABFF35F8F02C39342FAD17047C046A3
:100D4000000100D0800100D0054B064A1360064A1E
:100D5000136053609360D360136153619361704774
:100D60008080808000E400E004E400E01F2318405D
:100D70001E3B8340002905D0C021044A490053503E
:100D800013607047802201498B50FAE700E100E0D0
:100D900070B50D00EFF3108672B60F4A1368002B82
:100DA000FCD0BFF35F8F0D4B10309B6884001B5944
:100DB0000B4A934203D09D4201D000F093FD074BB4
:100DC0009B681D51BFF35F8FBFF35F8F0022024B03
:100DD0001A6086F3108870BD240100D000ED00E099
:100DE000CD010010024B9C466144890001607047B0
:100DF0004000003470B5114C114DAC420FD2FF26AB
:100E00002368002B0CD0FFF785FF01002000FFF7BF
:100E1000E9FFA680BFF35F8F0834AC42F0D370BD0A
:100E2000FFF778FF01002000FFF7DCFF2671BFF31A
:100E30005F8F0834AC42E3D3F1E7C046F8070020E7
:100E4000000800200A4B1968EFF3108072B60A6898
:100E5000002AFCD0BFF35F8F1B68BFF35F8F0022B7
:100E60001A6080F3108840BF002000217047C04600
:100E70005C0D0020F0B5DE4657464E464546E0B5CF
:100E800083B0EFF3058203231340B54A990052580B
:100E90000091904601229A40B24B93461A60B24BA1
:100EA00001932EE043469B881BB2002B00DB99E0A8
:100EB00043469B79002B00D0DDE0434608241C5FAD
:100EC000002C00DA06E143465A6963001B19DB0077
:100ED000D3189D68DC686B1C00D107E1A34B009917
:100EE0009C4661449A6A0B69A81A9B1A984200D2E0
:100EF0000D619E4800F03EFB8C4200DDEAE000D12F
:100F000026E15B4699484363434608229B5E994627
:100F1000002BC7DB424652695B0092464B44DB0024
:100F20009A4453469E68DF6800F024FB8F42B9DC88
:100F300000D100E1002F00DAE1E052465346546947
:100F40001B69019A934200D1D4E0414652460820E1
:100F5000085E5288000421001043984704000D00E9
:100F600023002B4300D1CAE0002D00DBE7E0300076
:100F70003900001BA94153469860D96000229A5E4F
:100F8000002A8FDB43465D6953009C18E4002C194E
:100F9000A768E4688C4200DD84E702D1874200D96B
:100FA00080E74646328108360DE08C4200D1D3E01E
:100FB0001E000023F25E002A0ADB53009C18E400A6
:100FC0002C19A768E4689B18DB00EB188C42ECDD59
:100FD00053461A804B46338043469B881BB2002BF6
:100FE00000DA65E743461A69EFF3108172B61368B9
:100FF000002BFCD0BFF35F8F43469E8801234246FF
:101000005B42938036B21369BFF35F8F00221A6090
:1010100081F31088002E00DA4AE743465D69083301
:1010200042469C467700BF19FF00EF19BB68604637
:1010300098460823D15E9246FC68002907DA0EE044
:10104000A2424FD018000023C15E002906DB4B00EE
:101050005B18DB00EB18DA68A242F1DD524606802D
:101060000023FE5E3980002EDCDA904643469B79F1
:10107000002B00D121E700234246937143464646A8
:101080000821595E08364B1C24D0474689465569CD
:1010900002E006004B1C18D04B005B18DB00E81880
:1010A0000A008C46E95E43881BB2002BF1DA01236B
:1010B0005B42DC178360C4604A4503D031803B89C2
:1010C00003803A81E1464B1CE6D14C46B846002CE1
:1010D00000DBF8E640BF03B0F0BCBB46B246A94611
:1010E000A046F0BD9A684245ACD9B7E7631C00D072
:1010F000F4E6FEE6200023699847002825D15346F0
:1011000042461B8813811269EFF3108372B611688F
:101110000029FCD0BFF35F8F4246514652880A80B7
:101120004246494651801269BFF35F8F002111602A
:1011300083F31088B6E6864200D8FBE6B2E60B4899
:1011400000F018FA0019694115E76568246807E797
:10115000854200D8D5E6BDE7874200D828E737E7C3
:10116000480D00203C700540750E00100040054001
:1011700070B52E4C2569002D04D00A212C48FFF7AC
:1011800031FE70BD2B4E0321300000F0E9F9E6601E
:10119000FFF7C0FD284B03229C46D02322701B067C
:1011A0001B6801216370254B6044A3600F238000FE
:1011B00020610220638063694942A1801980023165
:1011C000198647311D83585218315A5275325C398D
:1011D000995218320131995218320131995218320C
:1011E00001319952083518329D5202311832995204
:1011F00018320131995218320131995218320131A5
:1012000099521832013199521832013199520C4BCE
:101210000C49DC6001303562FFF7BAFD0121032083
:10122000FFF7A4FD084B1D60A7E7C0465C02002045
:101230005C0D00200040054040000034FFFF10001E
:10124000480D0020750E00103860054070B5010093
:101250000469EFF3108C72B620680028FCD0BFF34D
:101260005F8F02200D5E4C6968004019C000241891
:10127000002D37DB208848800869BFF35F8F002688
:1012800006608CF31088E360638804980133206162
:101290005B0405985B0CA26060611A1C002B1FD0D8
:1012A00093B22804628018430A69EFF3108C72B677
:1012B0001368002BFCD0BFF35F8F8B8823808D8059
:1012C0000B69BFF35F8F00221A608CF310880B78D4
:1012D00001329A40CB6808498C4663441A6070BD5D
:1012E0000122DDE70B69BFF35F8F00221A608CF3E8
:1012F000108801204042F2E73C20000010B54389ED
:101300000A1493421ADD53009B184269DB00D3187C
:101310000469EFF3108C72B62268002AFCD0BFF388
:101320005F8F5A88090494B2090C8A4208D0036975
:10133000BFF35F8F00221A608CF31088002010BD6D
:101340008022120214435C80012302698371BFF37F
:101350005F8F002111608CF31088044902788C465D
:101360009340C268012062441360E8E73C2000001B
:10137000F0B504000D0006267642F717C64636196A
:101380006F4100B582B08F4214D811D000F0FAF846
:1013900032003B00121A8B41002B17DC002B47D088
:1013A0002000290000F0F8F802B080BCB846F0BD7B
:1013B0008642EBD90022002316001F0000F0E2F85D
:1013C00032003B00121A8B41002BE7DD00F0DAF807
:1013D00032003B00121A8B41002B0ADB00230193E1
:1013E000154B3200009315483B00FFF72FFF0028F4
:1013F000D6DB00239C46B046114A124E736A9F42C8
:1014000004D8B16A8845CBD99F42C9D11168EFF39E
:10141000108072B60B68002BFCD0BFF35F8F13688F
:10142000BFF35F8F6146196080F3108820BFE5E746
:10143000002AB5D0CAE7C046450E00105C02002065
:101440005C0D00200040054070B5060000F09AF8E1
:10145000FA2204000D00002330000021920001F068
:1014600063F98023001969411B06994202D30120C8
:1014700002494042FFF77CFF70BDC046FFFFFF7F7F
:10148000F0B5CE46474680B504000D0083B0EFF3BB
:1014900005878846002F3ED12E4EA1463378F0684E
:1014A00004339B00816A1B58601A5B1A98420ED362
:1014B00020BF294900204B6AAB4203D38A6A01301E
:1014C000944231D803B0C0BCB946B046F0BD00F07C
:1014D00059F822002B00121A8B41002B2FDB1F4BD7
:1014E0002200009330002B000197FFF7AFFE011E92
:1014F00025DD194B5A6AAA421BD220BF3000FFF7E4
:10150000FDFE154A0020536A4345DBD3926A013041
:101510009145D7D908E0104900204B6AAB42D1D39E
:101520008A6A0130A242CDD25B1B5A1E9341D8B2C7
:10153000C8E79B6A9C42E1D9AA42DFD1DDE7064AAF
:101540000020536A4345BDD3926A01209145B9D921
:10155000EAE7C0465C02002000400540450E00104E
:1015600010B5024A0248FFF7B3FB10BD3C51001012
:10157000F00C00200300416A0A00986A596A8A4206
:10158000FAD17047034B596A0A00986A596A914226
:10159000FAD1704700400540064A536A9942FCD888
:1015A00007D1044B02E05A6A914202D19A6A824200
:1015B000F9D3704700400540F8B5DE464E46574621
:1015C0004546E0B58B4605000A991800160000F064
:1015D0008FFA0A9B6C001F02324B64199C46A400D0
:1015E0006444636881469F4200D967602B1FDBB269
:1015F0009846012B30D9C02380229B01E3181201A9
:101600001A60294BAD0059599A4600291BD1730124
:10161000E026226853401E40802342465B01E318C7
:101620001E60012A30D9802380229B01E318120119
:101630001A6053464A4667605A51F0BCBB46B246F0
:10164000A946A046F8BD586900F052FA013043009F
:101650001B18033BFDD2DAE75B46012BCBD1C0233D
:1016600003229B01E3181A60023AA3681A42FCD0D5
:101670007301E0262268AD0053401E4080230A4AD1
:101680005B019246E3181E605A46216851400322CE
:101690000A401A6001225B469A40A3681A42FCD0B5
:1016A000C1E7C04600800040F40C0020F0B546467B
:1016B0004F46D646C0B51F00344B44009C46241804
:1016C000A4006444636888461600FF2B02D8802378
:1016D0005B006360031FDBB29A46012B30D9C02345
:1016E00080229B01E31812011A60294B8500595989
:1016F000994600291BD17301E026226853401E4001
:10170000802352465B01E3181E60012A30D98023F2
:1017100080229B01E31812011A6080235B00636042
:101720004B465F51E0BCBA46B146A846F0BD586989
:1017300000F0DEF9013043001B18033BFDD2DAE76D
:101740004346012BCBD1C02303229B01E3181A602F
:10175000023AA3681A42FCD07301E0262268850091
:1017600053401E4080230A4A5B019146E3181E60E5
:1017700042462168514003220A401A600123424632
:101780009340A2681342FCD0C1E7C04600800040ED
:10179000F40C0020014B8000C0587047F40C00206E
:1017A000F8B5040021481E0017000D0000F0A0F954
:1017B0000100380000F09CF9069B36041B031E4311
:1017C0002368002B20DB1A4B1A49E3185A1E934159
:1017D0008022920194465B421B0B174A1B03634411
:1017E0001360164A13601F000A689743FBD1144B1D
:1017F0002560E2182123A06013602368002BFCDA27
:101800000823E6601360F8BD3F2322681340AB4213
:10181000D9D1A3681B051B0D8342D4D1EE22E36806
:10182000D2021340B342CED1EDE7C046001BB70051
:101830000040FDBF08C0004000E0004000F0004054
:10184000043000008023024A9B000B43D3627047A0
:1018500000800540142310B50100188804331B884C
:10186000984710BD162310B50100188802331B8855
:10187000984710BDF8B54746CE4680B50F1E19D023
:1018800014239946043304000025012698464B464C
:101890001888434621681B88984701C4431E984115
:1018A000013540420640AF42F1D13000C0BCB946DC
:1018B000B046F8BD0126F8E7AA23064A1B011360CB
:1018C0002F230549D360054B19605368002BFCDAC0
:1018D0007047C0460040024000B0FA00006002407D
:1018E0007047C04610B50148FFF7DAF960510010A3
:1018F00070B5074D074EB54209D20024013E761B54
:10190000B60808CD984723000134B342F9D170BD21
:10191000E84E0010244F0010054B064A06491A6095
:10192000064A074B1A6010000B689843FBD17047BA
:1019300000E00040BFCDFBFE08C00040FE7F3C0041
:1019400000F00040044BDB6C002B03D18022034BE2
:10195000D2021A607047C046000011504C2011504E
:10196000044A054B1A60054A1368DB018033FBD13A
:101970007047C046FFFFFF0100F0004008C0004074
:101980004022034B9A675A671A67DA667047C04667
:1019900000F0014010B5FFF7C9F910BD70B5044D56
:1019A000044CA968C022200000F03EFFAC6070BD6E
:1019B00000ED00E000000020002310B5294C82B0AB
:1019C000A367FFF779FF0122274B1A60636C012B95
:1019D000FCD10322254B1A60224A936B012BFCD1C8
:1019E000013300930121224A22480433FFF7D8FE35
:1019F000052301210093204A2048FFF7D1FE002251
:101A0000022104201E4BFFF751FE00220121052078
:101A10001C4BFFF74BFE0022002107201A4BFFF75B
:101A200045FE002200210820174BFFF73FFE8023D0
:101A3000DB000093002200210920134BFFF7BCFDBF
:101A40000022104B00210620FFF730FE0420FFF794
:101A5000A1FE0E4900F04CF801000020FFF7F2FE55
:101A600002B010BD008000403CB0004030B00040EB
:101A7000002F685900800240008C864700C0024059
:101A8000001BB70040597307006CDC0240420F0096
:101A900001480421014B18478002002075180010EE
:101AA000124A936F9B0815D29066D166002905D023
:101AB000FFE7FFE7FFE7516F106F704704B5802124
:101AC0000906C2175140002800D0C84303F0F4F9BA
:101AD000002104BDF0B5146E556E576F166FFFF7F9
:101AE000E3FF1466556657671667F0BD000000D027
:101AF000114A936F9B0813D210665166002905D0D6
:101B0000FFE7FFE7FFE7516F106F704704B500284C
:101B100001D00020C04303F0CFF9002104BDC0462E
:101B2000F0B5146E556E576F166FFFF7E5FF14662C
:101B3000556657671667F0BD000000D094464A4AC4
:101B4000926F9208624601D228E0C046F0B5464E38
:101B5000346E756E776F366F00F020F89446424A07
:101B600014665566576716676246F0BD94463E4A4E
:101B7000926F9208624601D254E0C046F0B53A4EE8
:101B8000346E756E776F366F00F04CF89446364AB7
:101B900014665566576716676246F0BD002B24DB56
:101BA00011D000293EDA00B5C943404200D10131CD
:101BB00000F038F8C943404200D10131DB435242C2
:101BC00000D1013300BD002AEBD1002801D100294A
:101BD00005D00020C90FC90701D1C043410800B595
:101BE00003F062F90022002300BD00B500290ADBE2
:101BF000DB43524200D1013300F014F8C9434042A4
:101C000000D1013100BDC943404200D10131DB4365
:101C1000524200D1013300F005F8DB43524200D1BB
:101C2000013300BD002923D1002B18D1002A0CD08C
:101C3000BC460D4F38667A6600210023FFE7FFE7B8
:101C4000FFE77A6F386F67467047002801D0074872
:101C5000010000B503F028F90022002300BD0200B6
:101C60000B00002000217047000000D0FFFFFFFFA5
:101C7000002B00D0BFE0130C28D1002AE7D080B49D
:101C8000114F39667A66FFE7FFE730B4040C7B6FCB
:101C9000396F1B0423433B667A66FFE7FFE7FFE7E4
:101CA000C04684B27B6F3D6F1B0423433B667A665C
:101CB000FFE7FFE7C04600232C042D0C7A6F386F36
:101CC00000196941B0BC7047000000D0F0B59446DF
:101CD0000025140E01D112020835140F01D1120192
:101CE0000435940F01D192000235D40F01D1520076
:101CF0000135D40B0134254F7C66254C3C660E0C17
:101D000093B2FFE7FFE7FFE73C6F6643360C7703CC
:101D1000BE467343DF0B5B04C01AB941130C734317
:101D2000DB18C91ACE086643360CB64493B2734327
:101D30001F0F1B01C01AB941130C73431F0B1B0566
:101D4000C01AB941860D8F023E436643360C092DF9
:101D500024DB520A7243801A7703460A6643360C24
:101D600016235B1BDE40DF40BF1964466643821BBF
:101D70007046043506330100D940A840C01900D38D
:101D80000131A24206D20023F0BD0000000000D0C5
:101D9000FFFFFFFF121B0130F3D3F1E709277F1B81
:101DA000FE406446A2B27243801A00D20139220C6E
:101DB0007243130C1204821A99410B0070460435C9
:101DC00013370100F940A840801900D30131002BDE
:101DD00002D1A2420AD2F0BD013000D30131121B60
:101DE000FAD2013BF8D1A24200D2F0BD013000D3BB
:101DF0000131121BF7E7F0B51C0C00D080E00CB4E9
:101E000000251C0A04D11B02160E334312020835AA
:101E10001C0B04D11B01160F3343120104359C0B1C
:101E200004D19B00960F334392000235DC0B02D1A4
:101E300092185B4101351C00971864410134464FEC
:101E40007C66464C3C660E0CFFE7FFE7FFE7C046AA
:101E50003C6F6643360C7703BE4697B27743C01B90
:101E600000D20139C01B00D201399FB27743C91B90
:101E7000C91B170C77437E04FF0B801BB941CE08AA
:101E80006643360C0C2D33DBB644120B1F053A4368
:101E90001B0B97B27743C01B00D201399FB2774327
:101EA000C91B170C77433E043F0C801BB941860DBC
:101EB0008F023E43664329277F1BFE400C3D774639
:101EC000AF40BF1930BCA2B2ABB272437343801AA9
:101ED0009941220C7243130C1204801A994102009A
:101EE0000B000137001BA941F9D2781E0021F0BD7B
:101EF0000C277F1BFE4077467F0BAF40FF19E0E7C2
:101F000000245D1C07D0144F7D663966FFE7FFE7AC
:101F1000FFE7FFE73C6F95B29EB265436643401B07
:101F2000B141150C1E0C6543664336042F0C3E432D
:101F30002D04401BB141994204D202000B00200045
:101F40000021F0BD01D19042F7D3801A99410134AC
:101F50009942F2D3F6E70000000000D0FFFFFFFF38
:101F600048404140484018B41B4B5B68FC46019315
:101F700008BD04DFFB21001018B4174B1B68FC469A
:101F8000019308BD00DF052200109446134A926FAA
:101F9000920809D2624618B40F4BDB68FC460193E5
:101FA00008BD0CDFBD2400100C4AF0B5146E556E50
:101FB000576F166F6246FFF7EEFF084A14665566C4
:101FC00057671667F0BD18B4034B9B68FC46019336
:101FD00008BD08DF6123001080090020000000D048
:101FE000FFB550404240504059404B40594000E0FE
:101FF000FFB5154F4C00640D03D0BC4204D10C0357
:1020000014D80020090D09055C00640D03D0BC4202
:1020100004D11C030AD800221B0D1B0501264B40CE
:1020200009D44B4003D58B4200D18242FFBD994277
:10203000FCD19042FFBD0B43DB1803431343F5D0A3
:10204000C9434918FFBD0000FF07000000B5FFF7B6
:10205000CFFF804100BDC04600B5FFF7C1FF01D9E9
:10206000002000BD012000BD00B5FFF7B9FF804191
:1020700000BD012040054A00121804D85A00121869
:1020800001D800207047012070470000002100287F
:1020900005D17047C1174840401AFAD0C90713B597
:1020A000064B1B6898470CBC441CA2401005120B41
:1020B0000349091B09051943114310BD580D0020A0
:1020C0001F04000010B54C00620D8023D218DB0005
:1020D000D21A5B057E2A10DD9E3A13DACC1709036B
:1020E000490819435242D140640001341532202A74
:1020F00005DAD0400843604310BD002010BD0846FB
:10210000604310BDC80FC018013810BD18B4044B8F
:102110005B6AFC46019308BD24DF6D2600100000B9
:1021200080090020132370B51D78012D19D014DD0E
:102130001F48FFF797FB06001E48FFF793FB1E4C56
:1021400080223100200000F06FFB022D2DD01B48B3
:10215000FFF780FB1A4B186070BD1A4B164CA36436
:10216000F5E7184B144C23606360A360E3602361C0
:102170006361A361E36123626362A362E362236339
:102180006363A363E36323646364A364E364236519
:102190006365A365E36523666366A366E3662367F9
:1021A0006367A367E367A364D1E7064BA364CEE745
:1021B0005344000053460000800900204C330000C7
:1021C000580D0020C921001007B5604601880A0A91
:1021D0000230DF2AFAD1C9B2820804D302884088CB
:1021E0000004104300E00068014A5050039007BD0E
:1021F000800900200FB403BC0CBCF0B50124E40737
:10220000634000E0F0B50C0DCF0F661E3605891B4C
:10221000640503D3C943404200D30131640D03D0A8
:10222000661CF60A07D0E41B00207F00791C890792
:102230008912803C24031D0DDF0F6E1E36059B1B8B
:102240006D0503D3DB43524200D301336D0D03D040
:102250006E1CF60A07D0ED1B00227F007B1C9B073B
:102260009B12803D2D032F1B661B58D4A446202EA5
:1022700046DA20371400BC401D00BD40F240334117
:102280002A4380185941CB0F05D0C943C0430022CF
:1022900064425041514162464D0D28D10D0D07D188
:1022A00000281FD0241940414941013A0D0DF9D0B1
:1022B000640006D3013000D30131002C01D1400865
:1022C0004000013A0BD4941CE40A04D112051144D5
:1022D000DB071944F0BDD907204B194300E0D907AB
:1022E0000020F0BD0029DDD1002CDBD1F0BD013292
:1022F000C6074008CD0728434908002EE1D0D9E79A
:102300003C2E29DA203E40371400BC4000D0012486
:10231000F24014431A00BB401C43D317ACE7AC4651
:10232000202F08DA20360400B4400D00B540F840F4
:1023300039412843A5E73C2F0CDA203F4036040002
:10234000B44000D00124F84004430800B1400C43DD
:10235000C117EAE710001900002494E70000F07F9D
:10236000F0B50C0D661E3605891BE60A6405640D82
:1023700002D0651CED0A04D0002001210905803C33
:102380002403A4461C0D671E3F05DB1BE70A6405FA
:10239000640D02D0651CED0A04D0002201231B0548
:1023A000803C24037740644497B484B296B274436B
:1023B000070C7E43150C6F4380B26843361802D376
:1023C000012000043F183004350C00197D4184467B
:1023D00088B29AB250430C0C62431F0C7C438EB2FD
:1023E0007E43921902D301263604A4191604170C51
:1023F0003618674101BC81B29AB25143040C624362
:102400001B0C5C4380B25843121802D30120000415
:1024100024181004130C401863412D185E4100204D
:10242000474106BC88B293B258430C0C6343120C6C
:10243000544389B251435B1802D301210904641843
:1024400019041A0C091862416D18564100204741C1
:1024500018BCF902720D1143F0026A0D1043ED022F
:102460000A0D03D16D1940414941013B124E9B1B9E
:102470007600B3420ED26D0007D3013000267141C1
:102480006646354301D1400840001B05C918E407E2
:102490002144F0BD0BDA013306D1013004D1013102
:1024A0004F0D01D04908F2E7E1070020F0BD0136E9
:1024B00031050020EBE70000FF030000F0B51C0D24
:1024C000671E3F05DB1BE70A6405640D02D0661C2E
:1024D000F60A04D0002201231B05803C2403D025EA
:1024E0002D060026F6432E661E096E66CE0FF619DF
:1024F000B44649004F0D02D07E1CF60A03D00020DE
:102500000021403F3F033E1BB600B444013F7F051E
:10251000C91B49082E6F013676089C02950D25438C
:102520007543ED137543AD1301356D10F603761B3E
:102530000CB4CC02450D2C43A2B2B3B25A43270CC3
:102540007B43350C6F43A4B26C431B1902D30124A7
:1025500024043F191C041D0CA4187D4124196D414D
:10256000009A91B2ACB26143170C7C432B0C5F43D1
:1025700092B25A43A41802D301221204BF182204B3
:10258000230C52187B41019C6C431B19520ED9013C
:102590000A434401A01A81B2B2B2514303145A4310
:1025A000360C734387B27743D617D21900277E4182
:1025B00036049B191704160C7F185E417316ED182C
:1025C000F301002680337541A90F06D16400690A22
:1025D000E8055B0A184309D22FE0042294448033B3
:1025E0007541A90AA8059B0A184326D340414941D1
:1025F0002404009A019B0D005543641B4343E41AD5
:1026000095B286B27543170C7E43030C5F4392B2BA
:102610005A43B61802D301221204BF183204330CF5
:1026200052197B4152429C41002C02D400220130BD
:1026300051414008CA071043490802B06246D70713
:102640009210084BD218084B9A4203D212058918EF
:10265000C919F0BD0020002A01DC3900F0BD0133AA
:102660001905F5E7FD030000FE070000002200B594
:10267000203200F004F8080000BD000000220B1515
:102680000AD410B5944600F031F81414013400DA7D
:102690000021CB17144C20470020002170476244D2
:1026A000343A0CD40C2A07DA04009140904052428C
:1026B0002032D440214310BDD843D94310BD20322D
:1026C00007D40C469440524220321141D04020435E
:1026D00010BD0800C917203203D4524220321041E5
:1026E00010BD1800190010BD9F2600100A0DCC0F58
:1026F000531E1B05C91A520503D3C943404200D3D8
:102700000131520D03D0531CDB0A07D0121B0020ED
:102710006400611C89078912803A1203014BD21AA6
:1027200070470000FF03000051434343C9188C4623
:10273000110C83B24B4310B4040C614392B280B2CB
:10274000504362431C041B0C001910BC5941130474
:10275000120CC0185141614470470000132310B59A
:1027600012481C78FFF77EF80100012C0AD003DD27
:1027700080220F4800F058F80E48FFF76BF80E4B18
:10278000186010BD0A4C5422200000F04DF80B4B8D
:102790006365A365E36523666366A366E3662367F3
:1027A0006367A367E3672362E361E5E753460000DD
:1027B000800A00204C330000580D0020C127001073
:1027C00007B5604601880A0A0230DF2AFAD1C9B289
:1027D000820804D3028840880004104300E00068A7
:1027E000014A5050039007BD800A002010B5040034
:1027F00001F0D4FE002804D0034B04199C4200D8F9
:1028000010BD0248FEF74CFA000004206C51001085
:1028100010B501F0CDFE10BD01480421014B184751
:102820009002002075180010014B5B6818470000EB
:10283000900200207047C046F8B55746DE464E4627
:102840004546E0B599460A9B07009A460D9B884687
:1028500093460B9C9B073BD10C9B9C423DD21E1B7D
:102860000B9415000C005E442A004B4601352100F4
:102870002020B847B542F7D1A0460B9C002C20D0B1
:10288000454636195346321B013C185D29004B461C
:10289000B847002CF6D12B00350098460D9B9B07BE
:1028A0000FD55B46EC1A0C9BA3420AD946469846C4
:1028B0002A004B46310020200134B84701354445F9
:1028C000F6D32800F0BCBB46B246A946A046F8BDE8
:1028D00016001500002CD3D1E0E71600002CCFD154
:1028E0001500EEE7F0B54F464646D646C0B584B073
:1028F00098460EAB1B7894469946129B0D9C109FF0
:10290000119E9A0725D4002E65D1BC4221D2012206
:102910001A409246202C00D1E9E00C9A551E302234
:1029200002E0202C00D17BE001342A55A742F8D8E0
:102930005246002A0DD0B4420BD20C9A551E3022BA
:10294000202C02D171E0202C2DD001342A55B44224
:10295000F9D1DA063CD55A052ED4002C28D10F9A8D
:10296000102A00D1B6E0022A00D1BCE030220C9C33
:10297000227001244A46002A65D15A0700D499E002
:102980002B220C9D2A55013403930C9B6246009325
:10299000029643460194FFF74FFF04B0E0BCBA46ED
:1029A000B146A846F0BD2024DA06EDD55A0503D479
:1029B000A74266D0B44264D00F9A102A71D0022A7E
:1029C00057D0202CE0D02200013430250C9FBD547C
:1029D000202CD9D0CEE7012215001D40AA461A426C
:1029E00036D04A46002A4AD10C321A4247D1BC425C
:1029F000A1D2202C91D1202E17D82024DA06C3D5BD
:102A00005A051BD4202F01D0202ED5D11F220F9D77
:102A1000102D6FD0022DD8D162250C9FBD54D0E768
:102A20005246002A79D0202EBDD92024DA06ABD513
:102A30005A0503D4202FE9D0202EE7D00F9A102A70
:102A4000A2D12024A0E72D220C9D2A5501349BE71A
:102A5000BC4200D37DE7202C00D05EE7DA06F0D53B
:102A60005A05EED4202F62D0202EEAD134001F2246
:102A7000CDE7202C00D187E722000134CCE7013ECE
:102A8000B5E7621E012CC2D10F9A102A00D06AE766
:102A90009A063BD558220C9C2270283A6270022478
:102AA00068E79A060ED4202CCBD078220C9D2A55AC
:102AB000013486E71A0700D466E720220C9D2A55C8
:102AC000013461E7202CBCD058250C9A12191570DE
:102AD000013476E79A0608D558220C9C22703022E1
:102AE0006270022446E76032F7E77822F5E7002AB1
:102AF00083D1B3E7A21E013C9D0603D478250C9F29
:102B0000BD5460E758250C9FBD545CE778220C9CAF
:102B10002270483A627002242CE7DA0600D433E7C8
:102B20005A058BD4202F00D044E71F226FE73C00CA
:102B30001F226CE710B5002800D110BD01F064FB26
:102B4000FBE7C0460B0010B5002802D049681B689F
:102B5000984710BDF0B557464E464546DE46E0B5AF
:102B600099B08246894690460893229A239B10008A
:102B70001900FFF77EFA002800D0CDE022982399B3
:102B80000122D94B5242FFF76FFA002800D0C3E070
:102B9000229823990122D54B5242FFF757FA002879
:102BA00000D0B9E02298239900220023FFF74EFAC3
:102BB000002800D0F1E1229E239F8023269ADB008B
:102BC0001A400D92269A1A4201D10623249380239B
:102BD000269A1B011A403B0093460996334300D0C6
:102BE000B3E0002A00D0C2E1002300240A930B9432
:102BF000002304250993259B0024AB4200D95C1BCC
:102C00000223269A1A400C92269A134203D06B4252
:102C10006B415B421C40099B002B07D00A9A0B9B1F
:102C200030003900FFF7B1F906000F002298239910
:102C300000220023FFF70AFA002803D080210906AA
:102C40007B181F00269AAA4B009601971340089EF6
:102C50000493249B03940293424633004946504612
:102C600000F0AAF90400002D67D02020269A4946DA
:102C7000024013005A4253415B42621C18400A92C0
:102C8000330022004530D047099A6F1ED317D4185D
:102C90005C40D30F9B46002501E0202D13D008AAED
:102CA00094461F23200063440A2101355E19FEF774
:102CB0001FFF3031317020000A21FEF719FF260076
:102CC0000400092EE9D805230693002304930A3350
:102CD00003935B46089E029310AB0A9A0093494601
:102CE0003300504605970195FFF7FCFD0C9A040050
:102CF000002A22D04246851A259AAA421DD9B046FA
:102D00005746160022004346494620200135B84761
:102D10000134AE42F6D810E0269B42460493259B30
:102D200049460393249B50460293229B239C009385
:102D30000194089B00F040F90400200019B0F0BC99
:102D4000BB46B246A946A046F0BD6A4B78009C46F9
:102D5000400D6044FFF79EF9674A684BFFF733F96F
:102D6000674A684BFFF708F9674A3B031B0B1A4396
:102D700004000D0009981100644B0022FFF7F3F8DE
:102D8000634A644BFFF71FF902000B002000290083
:102D9000FFF7F2F8FFF796F90990FFF77BF95E4A23
:102DA0005E4B04000D00FFF70EF900225C4BFFF7AD
:102DB000E3F8FFF787F95B4A5B4B29000C90200092
:102DC000FFF701F904000C980D00FFF763F9574A6B
:102DD000574BFFF7F8F802000B0020002900FFF71F
:102DE000C2F804000D0002000B000A940B95FFF7D7
:102DF000EAF804000D000A980B9902000B00FFF797
:102E0000BBF800220E900F914A4B20002900FFF7DB
:102E1000BCF80022484BFFF7AFF802000B0020007F
:102E20002900FFF7B2F80022444BFFF7A5F8020093
:102E30000B0020002900FFF7A8F80A9A0B9B0D0051
:102E400080210400C9050020FFF78DF802000B0067
:102E500020002900FFF790F802000B000E980F9950
:102E6000FFF793F80022284BFFF786F8344B0C9CB1
:102E70009C46644423050022FFF7A5F804000D00DA
:102E800002000B00300039000A940B95FFF7DEF8C2
:102E900000285DD123002A00C625099963318D429F
:102EA000AD4159466D420435002900D1A3E61343D4
:102EB00063D030003900234A234BFFF7CDF80028B8
:102EC00007D0002230003900204BFFF7BFF8002860
:102ED00053D1249B002B00D18DE60D9B5A1E9341AC
:102EE000249AD31A249386E6FFFFEF7FFFFFEFFFBC
:102EF000FFF7FFFF01FCFFFFFB799F501344D33F17
:102F0000B3C8608B288AC63F0000F03F0000F83F3E
:102F100061436F63A787D23F71A379094F930A403A
:102F20000000E03F1655B5BBB16B0240EF39FAFE29
:102F3000422EE63F00002C400000244000001840D4
:102F4000FF0300002D431CEBE2361A3F80842E4124
:102F5000099B0022013B09932000164B2900FFF733
:102F600014F80A00010003000A910B9294E7002371
:102F700000240A930B9400230993249A099B9A42F4
:102F800014DDD31A013B24938023269ADB001A43D5
:102F900000230025269209932DE6802212069446EE
:102FA000229B1E00239B63441F0006E600232493FC
:102FB000EAE7C04600002440F0B54546DE464E46EE
:102FC0005746E0B595B08B46904699461E9A1F9B92
:102FD0000A9019001000209DFFF74BF8002800D040
:102FE000B0E11E981F990122C74B5242FFF72EF8FD
:102FF000002800D037E11E981F990122C34B52428E
:10300000FFF732F8002800D0A7E01E981F99002291
:10301000BF4BFFF729F8002800D088E01E981F99C1
:103020000022BC4BFFF712F8002800D07FE01E986A
:103030001F9900220023FFF709F8002800D0FAE0CA
:1030400000230B938023229C229ADB001C401A420F
:1030500000D102E1092D00D87CE106A98C462C00A4
:10306000172200233021093C62440133D154EF1A66
:10307000202B00D132E1A342F7D10022A44B0692CB
:1030800007931E981F99FFF71DF80500FFF702F838
:1030900002000B001E981F99FEF765FF069A079B1A
:1030A000FEF791FF08900991FFF730F80600FEF750
:1030B000EDFF02000B0008980999FEF754FF00226B
:1030C000954B08900991FEF7CFFF002800D1D2E080
:1030D00001363000FEF7DAFF069A079BFEF7BCFFC9
:1030E000002801D000260135AA46002F00D098E024
:1030F0002800FEF7CFFF02000B001E981F99FEF775
:1031000032FF854B002206000F00FEF79FFF0CAB3D
:103110009A46002845D10022300039007E4BFEF748
:10312000A3FF00283DD1EB073BD5013539E0229BB9
:1031300042460493219B594603930A981E9B1F9C69
:103140000295009301944B46FFF704FD15B0F0BCC7
:10315000BB46B246A946A046F0BD229B5B0767D49A
:1031600003226E4B229901920391219902910093BF
:1031700042464B4659460A98FFF75EFBE6E706AA29
:1031800094461723280063440A2101341E19FEF7D0
:1031900087FC3031280031700A21FEF781FC051EC2
:1031A00076D0202CEBD10323229A1340012B1DD182
:1031B000219B002B1AD00B9B002B00D0BBE0229A46
:1031C0000C33134200D0B6E0219BA34200D887E025
:1031D00006AB9C4617223023624404E02199013457
:1031E00013558C4259D0202CF8D12024229B0194D5
:1031F0000393219B02935346B9E706AA94461723EB
:103200000A216344300001341D19FEF771FC30318E
:10321000297030000A21013FFEF76AFC092E46D9C9
:103220000600202CE9D155460CAB20249A46B8E77D
:1032300004223B4B96E71E9A1F9B00200021FEF7BD
:1032400092FE01230B938023229C229ADB001E9086
:103250001F911C401A4200D0FCE60022314B062789
:10326000069207930DE7229B0393219B029304236D
:1032700001932D4B7BE7002208980999264BFEF716
:10328000E5FE002800D02FE7002E4FD101362BE7B6
:103290000323229A1340012B66D0202CA6D00B9B2F
:1032A000002B1FD02D235246135501349EE755465F
:1032B000202CB9D030233A19002F08D0172006A9A6
:1032C000013409180B55202CAED09442F6D10CAB2A
:1032D0009A462E2352461355013462E72024CCE649
:1032E000202C83D0229B5B0708D4229B1B0700D491
:1032F0007CE7202352461355013477E72B235246AF
:103300001355013472E7C046FFFFEFFFFFFFEF7F69
:1033100065CDCD4165CDCDC10000E03FD851001055
:10332000D051001080842E41E0510010F30700D4EA
:10333000DAE60136D8E6219B013B2193A34200D96E
:1033400046E7AAE7229B0393219B02930323019361
:10335000074B0CE7074BEA009B185C681B682F00C3
:103360000693079400248CE6219B002B95D022E73E
:10337000DC510010E8F90E10F0B55746DE464E4617
:103380004546E0B5A5B01F002E9B91460D93CA4A55
:10339000CA4B82468B461A60002900D129E20023DD
:1033A00038789846002800D12BE2C54B44460C9350
:1033B000C44B55464E460E930AE0631C98462200C5
:1033C00033005946A84744463878002800D187E0A2
:1033D00001372528F1D108239A46043B9946023B40
:1033E0009846013B00229C460B943878791C0300D8
:1033F000203BDBB2102B03D80C9C9B00E3589F466C
:103400000300303B0B9C0B92092B3AD900239846C2
:103410002A2800D1DDE000239A462E284BD0030055
:10342000683BDBB2122B1ED80E9A9B00D3589F46E6
:1034300063460F001A43D8E743460F001A43D4E708
:103440004B460F001A43D0E710230F001A43CCE776
:1034500053460F001A43C8E780235B000B9A787825
:103460001A430B9201310F0067284FD82428A4D9A2
:103470000300253BDBB2422B9FD893499B00CB58DE
:103480009F46002398460B9B47469C4600E001312F
:10349000BB00DB195B001F180878303F0300303B8E
:1034A000092BF4D963460B930023B8469A460F00C4
:1034B00001312E28B3D180200B9AC00002430B9219
:1034C00030225242944678780B0084446246092A9E
:1034D00000D8AAE12A2800D1B9E10F0001319EE706
:1034E000A046AA46B146C84503D301235B424B44DC
:1034F00098464B46424659460020D047200025B00A
:10350000F0BCBB46B246A946A046F0BD01006939F1
:10351000C9B20F2900D950E701238B409C466B4B61
:10352000994663464A4613400F9362464B461A42F9
:1035300000D068E10A2956D0072900D03DE70D9B4D
:1035400002CB9846002900D092E10B9B10211A0073
:103550008A43100011310843814680201A00C000C0
:103560000240110003421CD114AB9C461F220F23C2
:1035700062440D959C4615000F9B0B9402E0202B96
:103580000CD0110064460C4020003730092C00D8C4
:1035900007380133E8540A090F29F0D80B9C0D9D18
:1035A0000F934B4608220693534605920832039226
:1035B000002204930F9B029201931CAB2200009304
:1035C000594633002800FFF78DF9434604000D9358
:1035D000FAE60D9B04CB9046002A79DB78780D93B0
:1035E0000F00013117E70D9B02CB14930B789C461B
:1035F00018005346002B00D134E1002815D0534663
:10360000013B013399460D940B9C89444A460B00BB
:10361000A14601E0934203D05C780133002CF9D13C
:103620004A465B1A0D9C0B920F938023DB00994650
:103630000B9A13400D934B461A4204D00F9B5345EF
:1036400001D953460F93022399460B9A13400B93CB
:103650004B46134200D1F5E16346002B00D1D6E181
:103660000D9B002B00D182E10B1BD14631009A4605
:103670003B00A1442E005F464D4622009B468946F2
:1036800009E04B463900541CB0475346185D0028EA
:1036900000D192E122009542F3D14B465A46A94609
:1036A000BB46350017001E004C460B9B002B00D07C
:1036B000ADE1149B0D9387E6793300102C0D0020AB
:1036C00048F80E108CF80E10D8F80E10419000003B
:1036D0000B9A283802430B92424652427878904621
:1036E0000F000D93013196E678786C2800D15DE1EA
:1036F00080230B9A5B001A430B920131B3E68023BF
:103700009B00ABE67878682800D148E180230B9ACB
:1037100001311A430B92A6E6672800D1B2E0472890
:1037200000D11AE1452800D11CE10B9A072104922F
:1037300042460D9B0392073352468B431900029277
:103740000CC92800009201930D91220033005946C4
:10375000FFF700FA040037E6462800D18DE00B9A07
:103760000721049242460D9B0392073352468B4336
:10377000190002920CC92800009201930D912200B9
:1037800033005946FFF718FC04001DE6631C9846F9
:103790002200330059462520A847444614E60D9BD5
:1037A00004330F93631C99460B9B9A0700D40AE1DC
:1037B0000D9B2200187859463300A84743464444DD
:1037C000012B00D86FE1B0462E0025004C46B946CB
:1037D0005F4622004346013439002020B047AC4206
:1037E000F7D12C00BB4635004F4646460F9B0D9344
:1037F000EAE5D64B38789A4600239846002800D050
:10380000D3E500246FE66F2842D000D8FDE11023F5
:10381000782800D19BE00B9A9A430B920A239C468E
:10382000002314930A330F9338E057460B9AB900DC
:10383000C919490001330F181878303F0100303999
:103840000929F4D9BA460B921F00591CE7E50D9BD4
:10385000B87804CB0237D143C9170A4092460D937A
:10386000791CDCE5002800D1DFE602235B42C8E6D4
:1038700021200B9A0243914676E620230B9A1A43A5
:103880000B926CE780230B9A1B011A430B924CE7B7
:1038900008239C460023149308330F930B9880232E
:1038A0000200DB001A4011000200184200D080E044
:1038B0000C239A431000802302009B001A400B92B5
:1038C000184200D0F1E0802302005B001A409146CC
:1038D0000D9A04321492184200D0C3E2430600D578
:1038E000D7E0030600D421E30D9B1B880993002B2E
:1038F00000D02DE110339843002900D128E10023A6
:10390000994643460593534604930F9B06900393B1
:10391000002302934B4601931CAB220000935946AF
:1039200033002800FEF7DEFF0400C2E6582809D065
:10393000622800D0E3E202239C4600231493023362
:103940000F93ABE720230B9A1A430B92103B9C4634
:103950000023149310330F93A0E780230B9A1B01CD
:103960001A430B9220230B9A1A430B92DDE60B1B92
:103970009A460F9B99463B0037005E469B462200C5
:103980003B003100A84753460134185D0028F6D1AA
:103990004B460F935B46B3463E001F0085E6C023AF
:1039A0000B9AB8781A430B92F91C5CE5C0239B0074
:1039B000F6E70D239A4310007DE75B463500BB46D2
:1039C0004E461F0071E64346012B66D9631E4344F1
:1039D00032002E001D003B00A2465F4691469B46EA
:1039E00022004B46013439002020B047AC42F7D1C9
:1039F0005B463500BB464E46A14654461F000D9B14
:103A00004A461878594633004444A847EEE60F9BCF
:103A1000A146984500D84CE64444E41AB0462E002E
:103A200025004C46B9465F46220043460134390022
:103A30002020B047AC42F7D12C00BB4635004F46A2
:103A4000464636E60F98804500D873E24346E218B2
:103A5000131A32002E001D003B0091465F469B4624
:103A60000F9122004B46013439002020B047AC4270
:103A7000F7D15B46BB461F0043460F9901330F93B6
:103A80000B7835009C464E466046002800D0E7E59E
:103A90000FE60D9B1B78099329E70D9B22001878F0
:103AA00059463300A8474C46A0E60D9AFA3BFF3B27
:103AB00007329A430133994691444B460D9313685C
:103AC000526815921A4306D110329043002209928F
:103AD000002900D083E06122810600D54122D2B2C4
:103AE0000A9214AA91460A9A00210A3A0B92424677
:103AF0001792524618925A46B24609911E001F313B
:103B0000149B4944BB4616941A9500246746984670
:103B10008946159D19901B920AE03032D2B24B466D
:103B200001341A55A8454CD0202C4CD006000D006D
:103B30003A00002330002900FEF718F8D2B2092A13
:103B4000EBD90B9B9C466244D2B2E8E735280010C3
:103B50006123820600D54123DBB20A3B0B93434627
:103B600014A91F228C46159353466244B2460D9405
:103B700017974C468046A9461700099D0F9E16933D
:103B800008E03033DBB201343B55B5420ED3202C74
:103B90000CD0050031002800FDF7AAFFCBB209299F
:103BA000EFD90B9A94466344DBB2ECE7159B404691
:103BB0009846169B4D465646A1469A460D9C179F21
:103BC0009FE6B742B0D9179B56469846189B5F466A
:103BD0009A461B9B09949B46169C19981A9D43462E
:103BE0000593534604930F9B06900393002302937F
:103BF000099B01931CAB2200009359463300280017
:103C0000FEF770FE0400FFF7DFFB10230B9A9A43C8
:103C10000F92692800D091E10B9980230A00DB0004
:103C20001A4010000A00194203D0112118008A43DB
:103C30000F920F9A802311009B0019408C461A4264
:103C40005BD1802311005B00194089460D99043136
:103C50000B911A4200D0B2E013005B0600D4EDE0F5
:103C60000D9B1B781A00D90F0D91002B00D1A3E0FA
:103C7000100014AA944642461F23159252466344EC
:103C8000A846BA464D461494B14604001F00169249
:103C900001E0202D0FD020000A21FDF729FF01357A
:103CA0007E193031317020000A21FDF721FF2600F6
:103CB0000400092EEDD8159B4E46A9464546984668
:103CC000169B57469A46149C0F9B069343460593B2
:103CD000534604930A2303930D9B02934B4601938F
:103CE0001CAB22000093594633002800FEF7FAFD72
:103CF0000B9B04000D93FFF767FB07220D9B073317
:103D00009343013294469C4462460D920CCBD90FEA
:103D10000B911100194300D19BE0D9171391129117
:103D20005140109113995940119110981199129A7C
:103D3000139B801A99411090119114AA94464246FF
:103D40000023159252469946169232001F3363445F
:103D5000A8464E46BA4614941F00109C119D9146E9
:103D600001E0202E10D0200029000A220023FDF7B8
:103D7000FDFE013630322B00BA550D002200040042
:103D8000002BEED1092AECD8159B109411954546CD
:103D900098464B46169AB14657461E009246149CCA
:103DA0000F9B069343460593534604930A230393BC
:103DB0000B9B02934B461CE7002885D159E70D9BCE
:103DC0001B68DA0F1100002B00D1A6E0DA17981853
:103DD000504014AA91461F2342464B44A8460D94D6
:103DE000169704006546B1461F001491159201E034
:103DF000202D0FD020000A21FDF77AFE01357E1913
:103E00003031317020000A21FDF772FE26000400D7
:103E1000092EEDD8159BAC4645469846149B4E4658
:103E200019000D9C169F0F9B029106934346059324
:103E3000534604930A230393634650E713001B067B
:103E40006ED50D9B00229B5ED9175A184A4092B23C
:103E500009E7002399460028A2D1002200231092EE
:103E600011936AE70D9B1B689946002B03D1103311
:103E70009843002938D16123820600D54123DBB263
:103E80000A3B0D9343461693534614A91F228C46B2
:103E900017932B0062444D46B246159418978046FE
:103EA000170099460B9C0F9E08E03033DBB20134BB
:103EB0003B55B5420ED3202C0CD005003100280014
:103EC000FDF716FECBB20929EFD90D9A944663444B
:103ED000DBB2ECE7169B40469846179B56464D468C
:103EE0009A460B94189F159C43460593534604939A
:103EF0000F9B06900393002302930B9B0BE50B99FA
:103F000080230A00DB001A4010000A00194200D08A
:103F10008BE610239A430F928BE6002883D158E753
:103F20000D9B1B68D9175A184A409CE60D9B1B68CD
:103F30000993DCE4030001330F93A5E50B926DE4D4
:103F400000B585B00391012102900093034813004E
:103F50004A4202A9FFF710FA05B000BD452B001038
:103F600010B5094A0300146884B0002C08D001225F
:103F700000910648524203A9A047012004B010BD99
:103F800000F08EF90020F9E72C0D0020352B0010F1
:103F900000BEFDE7094A03001068002805D0084963
:103FA000C3188B4207D81360704706480449C318EA
:103FB00010608B42F7D901204042F5E7280D002020
:103FC00000000420600D002010B5FFF7E1FFC0469F
:103FD00070B5FDF78DFC074D074EB54209D20024A0
:103FE000013E761BB60808CD984723000134B34242
:103FF000F9D170BD244F0010284F0010030010B5F8
:10400000080011001B68984710BDC046F0B5C646B1
:1040100000B5437D07000D001600002B38D0002AA4
:104020002EDD00216A1E90466A5C037D4C1C002038
:104030000A2A0CD0A64216D043461B5D21000D3B38
:104040005A4253416A5CDBB24C1C0A2AF2D1002B63
:10405000F0D1884217DB022110483B689847A642FE
:1040600007D02000E8E7864203DD311A3B682818B4
:104070009847AD19013D2B780D3B5A4253413B7592
:1040800080BCB846F0BD091A3B6828189847E2E79B
:104090000368110028009847F2E7C04638FA0E106E
:1040A000F0B5C6460B6806000C0000B5802B06D0A4
:1040B0005A1C2260E418267180BCB846F0BD0F4B34
:1040C0001D68002D16D00B1D98460D4F02E02D697E
:1040D000002D0FD02B68002BF9D03B68002B01D0AE
:1040E000AB42F4D1280041462268FFF78FFF2D69CB
:1040F000002DEFD101220023DBE7C0461C0D00207C
:10410000240D0020F0B5DE4657464E464546E0B544
:1041100085B017001C0006000D00FDF733FA0023E0
:10412000314A12184B41802109068B4202D30122E9
:104130002E4B52422E4908008A4600F0CDFE0190D7
:104140006B1C03D1300000F0FBF90500002C26D0D9
:10415000284B9846284B1C68002C15D0002F21D1E5
:10416000264F02E02469002C0ED02368002BF9D0E2
:104170003B68002B01D09C42F4D120002A00310082
:10418000C0472469002CF0D1019B002B28D12800C6
:1041900005B0F0BCBB46B246A946A046F0BD184BE0
:1041A0009846D7E7154B994602ABDF1D0A239B467D
:1041B00002E02469002CE7D02368002BF9D04B469D
:1041C0001B68002B01D0A342F3D12A00310020004C
:1041D000C0475B460122390020003B70C047E8E73A
:1041E000504600F059FED2E740420F00FFFFFF7F2C
:1041F000F80700200D4000101C0D0020240D0020A9
:10420000FD3F001000207047F0B5CE46474680B510
:1042100083B06B460600DD1D2870FDF7B3F900235F
:104220001A4A12184B41802109068B4202D30122FF
:10423000174B524217490800884600F04DFE164BB6
:1042400081461C68002C14D0144F02E02469002C15
:104250000FD02368002BF9D03B68002B01D09C4283
:10426000F4D1200001222900FFF7D0FE2469002CA0
:10427000EFD14B46002B05D1300003B0C0BCB9468E
:10428000B046F0BD404600F007FEF5E740420F00A3
:10429000FFFFFF7FF80700201C0D0020240D0020E9
:1042A00070B5040000F04CF9012301000500012263
:1042B0002000FFF727FF084B1C68002C06D063681E
:1042C000002B05D098472469002CF8D1280070BD38
:1042D0002469002CF3D1F9E71C0D0020F0B5CE467F
:1042E000474680B5A3B004000D00FDF74BF900234D
:1042F000294A12184B41802109068B4202D3012220
:10430000264B5242264F380000F0E6FD00230600FF
:10431000019322002B00234801A9FFF711FE019B06
:104320008046002B14D1204B1C68002C06D06368FB
:10433000002B0BD098472469002CF8D1002E25D1F2
:10434000404623B0C0BCB946B046F0BD2469ECE796
:10435000154B1D689946002D1CD0144C02E02D69A8
:10436000002D0FD02B68002BF9D02368002B01D033
:10437000AB42F4D12800019A02A9FFF747FE2D694C
:10438000002DEFD14B4601951C68CEE7380000F0B8
:1043900083FDD5E70195D1E740420F00FFFFFF7F86
:1043A000F8070020A14000101C0D0020240D002063
:1043B0000FB400B583B004A901C90191FFF78EFFC6
:1043C00003B008BC04B01847484B02009C46624446
:1043D000531E9A418023F0B54E46DE465746454669
:1043E0005B029C46E0B5424B120485B062440290E9
:1043F0001A60404B0E0040491A6010000B68984349
:10440000FBD10620FDF7C6F90223029904008C4671
:104410004A6801901A4003920A1D9046374AF10DEE
:10442000624491461360700200295AD1A04258D8C4
:10443000802464000227A246B446B30DB20204E011
:10444000019E96420AD322002B000237574505D021
:1044500004000D00A4185D41002BF1D06646019BBD
:1044600080259A46B3463C02E41B6D002E00013DB8
:10447000002D38D021005046FDF73AFBE41B834560
:10448000F4D2310079432D02029CFF228026A446FB
:104490002761236812026B40760166441340336043
:1044A0008023039A9B0143441A604D46022207274A
:1044B00060682A60256810406F40CF253D40356018
:1044C00018600F48844603206444206001981A60F5
:1044D000FDF70EFB05B0F0BCBB46B246A946A046B0
:1044E000F0BD0227BBE73900CEE7C0460040FCBF65
:1044F00000E0004000F0004008C000400430000030
:104500002420000002220A4BC3181A60094B013212
:10451000C3181A60084B9C466044431E9841802390
:104520005B029C460004054B604418607047C0461F
:1045300004300000243000000040FCBF00E00040D8
:1045400010B583070AD00300032102E001330B42B8
:1045500005D01A78002AF9D1181A10BD030019687D
:104560000C4A0D4C8A188A4322420FD15968094AD5
:1045700004338A188A43224208D15968054A043311
:104580008A188A432242F1D000E001331A78002AC7
:10459000FBD1E1E7FFFEFEFE8080808010B5034B7B
:1045A0000100186800F00EF810BDC046B0060020EB
:1045B00010B5034B0100186800F074FB10BDC04635
:1045C000B0060020F0B54E464546DE465746E0B5FB
:1045D0000D000B35060085B0162D27D8102900D9FF
:1045E000DAE000F0E3FA102518230221C74FFB1888
:1045F0001A005C68083A944200D146E103226368DD
:10460000A1689343E268CA6091600121E3185A6887
:1046100030000A435A6000F0D1FA2000083005B09B
:10462000F0BCBB46B246A946A046F0BD07239D4359
:1046300000D5B1E0A94200D9AEE000F0B7FAFC2302
:104640005B009D4200D29AE1690A00D1A8E00429EA
:1046500000D94FE138239846A90988443931CB0065
:10466000082252429446A94FFB189C446346DC68DA
:10467000A44514D0032399460B0061469C4607E0ED
:10468000E068002A00DBFAE0814200D1FBE0040090
:104690004A46636893435A1B0F2AF1DD41463A00AC
:1046A0003C690832944200D1D8E003206368834318
:1046B000581B0F2800DD66E13A617A610028A4DA10
:1046C0007A68904680229200934200D3E3E0DA08B1
:1046D000580901238340404618438046D300DB1924
:1046E0009A687860E360A2609C60D46001208B10BF
:1046F000984040455CD8434603420AD1032399437E
:10470000434640000431034203D1400004310342D8
:10471000FBD00323B3469C460E00B8460190F00040
:1047200040440100B246CB680BE064465A681F0063
:10473000A243DB68541B0F2C00DDF3E0002C00DBF0
:104740000DE19942F1D101239946CA4453460831FB
:104750009B07E8D1032205E003680838013E834245
:1047600000D00AE23242F7D14346019A5B68934394
:1047700042465360019A520001929A4216D8002A8A
:1047800006D113E004229146019ACA4452000192D4
:104790001342F7D05646C2E70C23002033603EE7B1
:1047A00080233F22402190469B0059E75E464746C2
:1047B0000322BC68636893439946AB4202D35B1BF8
:1047C0000F2B4EDC23004B440293514B08201B68F7
:1047D00010335B19019300F0FDF94E4903900B680B
:1047E0008B46013306D08446019B4242013B634421
:1047F000134001933000019900F0C6F90300804690
:10480000013300D1DDE0029B834200D9D7E0019A59
:10481000414B944619689A466144039A1960029B79
:104820000800013A434500D0EAE04346134200D075
:10483000E6E0BB68984663464B441A0001231A43DE
:1048400043465A60354B1868884200D21960344B91
:104850001868884200D219604446B4E07B689846E4
:1048600044E70122290013431143651961603000B8
:10487000BD606B6000F0A2F920000830CFE6A268AE
:10488000D0608260C1E6614609E7DC680231A3427C
:1048900000D104E7B2E65A0A042A00D888E0142AB4
:1048A00000D90FE110005B3082465C32D200082054
:1048B00040428446BA189444624692680B3081465E
:1048C000944500D1E5E00800A2466146844602E036
:1048D0009268914204D04C465068A0439842F7D861
:1048E000D368614654469C466346A260E3609C6080
:1048F000D460FBE6142973D9542900D9EBE06E2368
:104900009846290B88446F31CB00A9E6A802002005
:10491000B40B0020A0020020840B0020AC0B002070
:10492000B00B0020BA460120514684464919054380
:1049300050464560856847466046EB605E469D6030
:10494000534639617961204308374860CF603000B1
:104950008F609C5000F032F9504608305FE6BA464E
:1049600001205E465244516801435160BA683000EC
:10497000D3609A6000F022F9380008304FE62B002F
:10498000E908083332E66119884601218C460D4357
:104990004146656039617961CA608A606246024356
:1049A0004A60E050300000F009F92000083036E697
:1049B0009A091000393238308246D20077E7BC427B
:1049C00014D0BC68626803239A43531BAA4202D3E3
:1049D0000F2B00DD45E7300000F0F0F800201EE668
:1049E0005B23984688445C31CB0039E6644B9A4699
:1049F0001868019B9C46534660441860039B5A1EEE
:104A00005B461B68013371D0434602995B1A5146DD
:104A10001B180B600723414640461940029118427B
:104A200040D00398013384465B1A0199984441446D
:104A30000191634411405B1A1A4011003000934603
:104A400000F0A2F8431C78D04346C01A03005B4430
:104A50000193534619680120594419604346019A4D
:104A6000BB6002435A60BC4200D1EBE64B460F2BC1
:104A700040D907220C3B93436268024005201A4349
:104A80006260E218506090600F2B4BD843465A6822
:104A9000D8E6534698100123834040461843804689
:104AA000786021E7019B039943441340CB1A1A40D5
:104AB00011003000934600F067F8431CC4D1002376
:104AC0009B46C6E7542A18D81A0B10006F326E3076
:104AD0008246D200EBE6AA235B00994218D8DD3B60
:104AE0009846E90B88447831CB00B9E55B464146EE
:104AF00019608FE7434658606DE7AA204000824264
:104B000026D8DA0B1000783277308246D200CEE613
:104B10001C4B994226D87C239846A90C88447D31A9
:104B2000CB009DE521003000083100F0BBF8534672
:104B30001968BB6898465A6884E6019A029B9446B5
:104B40004246083B63449B1A019300239B4680E73F
:104B50000C4882420CD89A0C10007D327C30824680
:104B6000D200A4E6FE237E227F2190469B0077E5BB
:104B7000FE227E209200824699E643465B68F9E574
:104B8000840B002054050000002370B5064C05007E
:104B900008002360FFF7FEF9431C00D070BD2368B6
:104BA000002BFBD02B60F9E7200D002010B5024848
:104BB00000F00CF810BDC046800B002010B5024874
:104BC00000F006F810BDC046800B00207047C046BC
:104BD0007047C046802310B55B01082801D118003A
:104BE00010BD00F049F916230360173BF7E7C046F4
:104BF000F0B5C646060000B508200D00FFF7EAFF35
:104C000004003000FFF7D2FF234B210098469B6839
:104C10005F6803239F4338001138401B0019FCF7DD
:104C200067FF451E6543AC4208DC00213000FFF7FA
:104C3000ABFF43469B68DB19984206D03000FFF774
:104C4000BDFF002080BCB846F0BD30006942FFF7D0
:104C50009BFF01300ED0012243467F1B9B68174308
:104C60000E4A5F60136830005B1B1360FFF7A6FFFE
:104C70000120E7E700213000FFF786FF43469A68EE
:104C8000831A0F2BDADD064C04492468001B0860E8
:104C900001210B435360D1E7A8020020840B0020C0
:104CA000A0020020F8B5CE46474605000C0080B5AE
:104CB000002957D0FFF77AFF012321009C460839CD
:104CC00048686246030003249343CF187A68654E10
:104CD000A243B468BC4200D170E0BC18A14664464F
:104CE0007A60044221D10868091A1B188868804636
:104CF000484640682040340008348146A04551D0E1
:104D00004046CC68C460A0604846002811D19B187A
:104D10005548BA68824200D17FE0F868D06082606E
:104D200001221A434A60CB5007E0484640682042BF
:104D3000EDD062461A434A603B6080229200934263
:104D400014D2DA0858090123834070680343736062
:104D5000D3009B199A68CB608A609960D160280063
:104D6000FFF72CFFC0BCB946B046F8BD5C0A042C66
:104D70003DD89C09200039343830E40034192268C9
:104D8000083C0327944203D140E09268944203D048
:104D90005068B8439842F8D8D468CC608A60A16063
:104DA000D160DCE7002858D1B868D218FB68C3602E
:104DB0009860634613434B608A50D0E79A18634665
:104DC000034206D10B68C91A8868D218CB68C36041
:104DD0009860012313434B60244BB1601B689342DE
:104DE000BDD8234B28001968FFF702FFB7E7142C42
:104DF00007D9542C1AD81C0B20006F346E30E400F5
:104E0000BCE720005C345B30E400B7E7012380108E
:104E10008340706803437360BFE7D1609160CA60EC
:104E20008A6001221A434A60CB5098E7AA225200B6
:104E3000944205D8DC0B200078347730E4009DE7FD
:104E40000C4A944205D89C0C20007D347C30E40050
:104E500094E7FE247E20A40090E762461A434A604D
:104E60003B607CE7A8020020B0020020A4020020E2
:104E7000B40B002054050000014B18687047C04671
:104E8000B0060020F8B5C04601B40248844601BC13
:104E9000604700BFD101002001B40248844601BC34
:104EA000604700BF5D01002001B40248844601BC98
:104EB000604700BF4102002001B40248844601BCA3
:104EC000604700BF4102002001B40248844601BC93
:104ED000604700BF8501002001B40248844601BC40
:104EE000604700BFC10000201919001045190010CB
:104EF000911A001019280010252100105D270010BC
:104F0000B9190010611900108119001095190010CD
:104F1000F50D00109D19001071110010E11800101E
:084F2000490D0010B102001060
:104F28005B7374617475735D2061707020696E695C
:104F3800742E2E2E0A0D0000000000005B657272B0
:104F48006F725D2063616E6E6F7420696E6974693B
:104F5800616C697A6520652D696E6B20636F6E746C
:104F6800726F6C6C65720A0D000000005B737461EF
:104F78007475735D2073637265656E2077696474F8
:104F880068202D20256C64205B70785D0A0D000078
:104F98005B7374617475735D2073637265656E20ED
:104FA800686569676874202D20256C64205B7078BB
:104FB8005D0A0D005B6572726F725D2063616E6ED3
:104FC8006F7420726561642074656D7065726174B8
:104FD8007572652076616C75650A0D005B73746186
:104FE8007475735D2073637265656E2074656D708A
:104FF800657261747572653A202564205B64656723
:10500800435D0A0D000000005B6572726F725D20DF
:1050180063616E6E6F7420636C65616E7570206479
:105028006973706C61790A0D000000005B6572722B
:105038006F725D2063616E6E6F742075706C6F6146
:10504800642027696D675F38627070272064617417
:10505800610A0D005B6572726F725D2063616E6E2E
:105068006F742075706461746520646973706C6115
:10507800790A0D005B6572726F725D2063616E6EF6
:105088006F742073776974636820646973706C61E6
:105098007920746F2031425050206D6F64650A0D7D
:1050A800000000005B6572726F725D2063616E6E56
:1050B8006F742075706C6F61642027696D675F314C
:1050C8005F316270702720646174610A0D0000000E
:1050D8005B6572726F725D2063616E6E6F742075AE
:1050E800706C6F61642027696D675F325F31627031
:1050F800702720646174610A0D0000005B6572729C
:105108006F725D2063616E6E6F7420646973616293
:105118006C652031425050206D6F64650A0D0000A7
:105128000A2A2A2A2050414E4943202A2A2A0A00BC
:105138000A000000486172647761726520616C61E1
:10514800726D20256420616C726561647920636CDE
:1051580061696D6564000000486172642061737361
:10516800657274004F7574206F66206D656D6F727F
:105178007900000052656C6561736500626F6F7439
:10518800325F77323571303830000000302E310010
:10519800322E312E300000007069636F000000006D
:1051A800757365632D3133332D7270323034302D81
:1051B8007370692D6578616D706C65004E6F76202F
:1051C8003238203230323400666E692B000000001D
:1051D800666E69006E616E00666E692D00000000E3
:1051E8006A666B6A6A6968666A68686A696867682D
:1051F800676B696A696A666A66686A6968676A6A1B
:1052080068676A6767676869696668686769686719
:105218006967686669686867676A66676A6A696A03
:10522800696A696969686E68696D6B696869676CDC
:105238006B6E6D686C6C6F6D6E6D6D6D6C6D706E98
:105248006B6E707070706F7274707077717571704A
:10525800727174777070737274737474777975720D
:10526800757E7277777576747776727677757578D6
:10527800727676786F7877747676747D7B787877BF
:105288007A7873757A7D71757673737B7B747577AD
:105298007E787A75737577776F7B77777B777E7B88
:1052A800787C787D7C7E7A7B817F7E7E7E7E7E8424
:1052B80081858787888789888D8C8C8C8C8D8F8C4D
:1052C8008D8E8F8C918F91928E909291908F9292D9
:1052D80092909191929292929292929292949592A5
:1052E800969392959296929392959391949795937B
:1052F8009795939594969292959392929292929171
:1053080091909292918F91928E90928F8D8F918E93
:105318008E8E8E8E8D8C8C8C8E8A8B8D858B8D89C6
:105328008789868781848082807D7D7D7B7E7E786B
:105338007C777B7A767870747A727170707070701E
:105348006E6F706F6B6D6E6F6D6C6D6C6B6B6E6A84
:105358006E6C686B67686869666A686A666A6667B9
:1053680064676565666966656565656567656565DC
:1053780065656565656465616465646166626164E7
:1053880060616165656565676466666766676B69C0
:105398006A67696B6A6B696A6D6D6C6A6B6D71704F
:1053A8006F6D6E7170707673777379777578757ABB
:1053B800787B7D7D7B7F7B7D7E7E817F7F7F7E820C
:1053C8007F8182807E84858583888680837F8487A9
:1053D80084848D85858C88878988878A8A8B898942
:1053E8008886878C838488898B8587898985838546
:1053F8008A877480878280838382827E7D7E818093
:105408007F7E7E7F7E82807E7F7B7E7B80767E79BC
:10541800777F7E7E7A7B7F7E7F7D7C7C7D7E7D77BD
:105428007C79787C7B7A7E787B7D7E747C7A797DCA
:105438007B7A767E7E777B7C797A7F7E7C7B7C7CB0
:105448007B7D7D7F7B7C7E7B7D7E7F817E7F818176
:1054580082807F827E828080827E8182847E838633
:1054680086848486808582898D848889818B8989D0
:10547800858988888B898B89898D8D8C8C8C8C8C7F
:105488008C8C8C8C8C8C8C8C8B8C8D8C8D8E8C8C51
:105498008C8C8C8A868E898781868789838482868C
:1054A8008280827F7E7E7E787E7B75797B71757443
:1054B8006F7070707070706E6D6D6B6A6967686719
:1054C8006765655F6161595E5D5156535251534F2F
:1054D800504C4E4F4E4A4849494B474A4548434627
:1054E8004548494845464B484848484C4E4A4D4B24
:1054F8004F47534E49505451514E5252525653559C
:10550800696B68686A6A69686A696A69696A6969FF
:105518006B686968676A6A6A6A686A6B6A6A6A6AEB
:105528006868696A6A69686969686869686A6868E8
:105538006A676967686766696A696969696A6969DA
:105548006A696A6B6B696A6A6A656C6D67676C6FB2
:10555800686B6E6B6B6E6F6D6E6E6D6D6B6F6D6F76
:10556800707070707071726F717275717274747816
:1055780072717474767475717872747779737775DB
:105588007473737B74717A767676797678727B79B0
:10559800767D78767674777D79747B7A75797B7386
:1055A80071797878757576767576777174747174A3
:1055B8007673747679777374777E74757B77727A7D
:1055C8007E787B7D7D7E7E7D7F7E7E7E7F828380F2
:1055D800848285888A868A8A8A8B8C8C8C8C8C902B
:1055E8009090918E908D919190909191908F9192B1
:1055F8009292929291929091929193929292949285
:10560800949496929194949493969392929393955A
:10561800959492929194939292929292929191925D
:10562800929292929290918D909091908F918F8F6B
:105638008E8E8F8D8E8C8D8C8B8A8C8A8A8B8C8BA0
:105648008585828680838282807E817E7E7E7E7D45
:10565800797E797A767779727471707070707070FB
:105668006F716D6C6F6D6E6D6E6C6D6B6C6B6C6D60
:105678006D6A696B6868676969656669676866669F
:10568800656465676B6965656567656565676565B3
:1056980065656565646164666565656664626466BA
:1056A800626366656565656665696A656B6867698D
:1056B80069696B6B6A696B6E696E6D696C6B6D6E2F
:1056C8007170706F70707072757A7377747879789A
:1056D800767C79787B7E7D7E7E81827D81817F82EA
:1056E8008181857F84898382818885838187878476
:1056F800878A878285888987868584878587878E34
:10570800898A84878B8A8886828B868A8383858A1E
:10571800818A74808682818182827F7E83817F8470
:10572800807E82817D7D7E7F817E7E7F757580779C
:10573800777F7E7E7F7B7D7E7A7D7A7E7E7E7B7A9A
:105748007D7C7B7B797D787F7F7E7E7B727E7D7C96
:105758007E7B7C7E7D7E7E7B78807C7A7B7A7F7F79
:105768007B7C7B7E7F7C7D7F7F817E7E8082837D4C
:105778007F8080817C847F8382817E83848484840B
:10578800837F8180848283858685868587858482D8
:10579800898D8C8C858589878D8A888A8E8C8C8C5E
:1057A8008C8D8D8C8C8C8C8E8A8B8C8C8C8E8C8C2E
:1057B8008B8B8C8B8B8C8B8988858485827F84806E
:1057C80084837D7E7F817D7E7C79797C7673757616
:1057D80073726F707070716E6A686C6A6A676966F6
:1057E800646566655E5F5F5956545452524F4E4E1B
:1057F8004D4C504D4D484B4D4A4C49484849454BF6
:105808004B48484B484A4A4A4A4A484B494E4E48F0
:105818004E4C4C4D4D4F524F51535252525153587A
:10582800676A6C676A69686A6A686A686A6A6969DD
:1058380068686A686A696A6B69686A686A6A6869CE
:105848006A6969686969686869686A6A6A696569C4
:10585800686A6969696768666A69696869696869B7
:10586800686A696A6C69676B6D6A6A6867696C6C93
:105878006B6D6B696B6D6F6D6B6D6D6D6F706E6C55
:105888006F707070707173707171717376717673F7
:10589800727274707376737373747A757573737FB9
:1058A800767271767178717A72757778777A777699
:1058B80078757C797875827A7878797A74747C7757
:1058C8007876747578797A7B787177737779717768
:1058D800737977757A7877757678777979777B7A47
:1058E800787A7C79797F7E7E7E7E7F7E7E828184D7
:1058F80087828B8B82888B8C8B8C8C8D8E8D8C8FFA
:105908008F8D9091928F9091909192909090929289
:105918009292929292939191939495949491939652
:105928009794969193919292949493949592959139
:105938009495929292929493949192939292939135
:1059480090909292918F90918F8F918F8E908E8D53
:105958008C8E8F8D8D8D8C8C8C8B8A888B83898A8D
:10596800838982827F868382807E827D7E7E7E7E20
:10597800797E78767F72797C7273737271707070C9
:10598800716F6E6D6E6D6D6D6C6E6D6E6C6D6C693C
:105998006A6C6B686C686C69686666696966666477
:1059A8006766696668656565676565656565656592
:1059B8006565656561646665656564656662646597
:1059C80064656565656565656866666B666567686F
:1059D8006B6A6B6B686A6E6C6A6E6A686F6E6E6C07
:1059E8006F706E6D71707170727475747B7A797A7C
:1059F8007C7B7E7E7B7E7E7E7E7E7E8182807D7EBF
:105A08007F80827F8785838484808285868982845B
:105A180080878288878A86878288898688858A8817
:105A280087898881878D878787888C82818B8A8AF6
:105A3800848E77798285858282807E7F82827F804C
:105A48007F7E7F807E7E7E7E7D7E7E7E6E76847784
:105A58007C7E7E7F807D7E7D727A767D7D7E7E7E79
:105A68007C7C7D7D787D7B7F7D79797F76757B7D7C
:105A78007D777E7E797E7E7D7A7B797B7C7E7D7B61
:105A88007E7C7F7E7E7E7F817E7E81827D7E82801F
:105A9800847E7D81817E7E81827E7E8584828384F0
:105AA800838484848888838C878588898483898D86
:105AB80082878B8980878C878A89898C8C8C8C8C4F
:105AC8008E8C8D8D8B8D8C8E8E8D8C8C8C8D8C8B05
